:10000000A5C0B5C0B4C0B3C0B2C0B1C0B0C0AFC06D
:10001000AEC0ADC08AB1554DB290438FB74F54BDFD
:100020008C3598B83A70CB4C51D75D47D2693ADEDF
:10003000544CE4307BCF0FC5822EF313B2912CF5D4
:1000400001E04583A82EE905F613D347968061ACFD
:100050003EC926DC1DDC27C643A860898365AC4009
:10006000C630C245A0746EA546BA4B948956B7599E
:1000700064180196FA00B42C015A200378F401C8E0
:1000800032007818015F1A015A1D01B45E01967C96
:10009000017818015F9A015A1D0146F401C8320027
:1000A00046B40041E80346960050B4005A1D015082
:1000B0000E010C320032D007C8F40150F40164F490
:1000C00001FF20036464006064005C640058C800A1
:1000D00054FA00502C014D5E014A900147C800447B
:1000E000C80041C8003EC8003BBE0038B40035AA75
:1000F0000035A000329600308C002E82002C780053
:100100002A6E002864002664002464002264002013
:1001100064001E64001C64001A6400186400165A0F
:1001200000144600123C001032000E28000A640041
:100130001032001446002464003296003EC8004786
:10014000C8005096005C82000000000011241FBE11
:10015000CFE9CDBF10E0A0E6B0E0E2EFF3E002C0EF
:1001600005900D92A236B107D9F769D040C148CFAA
:10017000EF92FF920F931F937B018C0112C080E0DE
:1001800090E0A0E0B0E0B59A0196A11DB11D28173E
:1001900039074A075B07B8F70894E108F108010935
:1001A0001109E114F1040105110549F71F910F919F
:1001B000FF90EF9008956F927F928F929F92AF92EF
:1001C000BF92CF92DF92EF92FF920F931F93CF9344
:1001D000DF9339014A0157016801A8019701260DF3
:1001E000371D481D591DE1D07901C0E0D0E015C090
:1001F00088B38E6088BBC401B30120E730E040E0E3
:1002000050E0B6DF88B3817F88BBC601B50120E727
:1002100030E040E050E0ACDF2196CE15DF0541F73D
:10022000DF91CF911F910F91FF90EF90DF90CF90D2
:10023000BF90AF909F908F907F906F9008952F9276
:100240003F924F925F926F927F928F929F92AF9266
:10025000BF92CF92DF92EF92FF920F931F93DF93A3
:10026000CF9300D000D00F92CDB7DEB7B89A8FB53C
:1002700080688FBD8FB583608FBD83B7816083BF7A
:1002800087B38E6087BBE0E7F0E084918B83319683
:10029000A591B491BD83AC83EB812C813D81552424
:1002A000442447C0E52DF0E0EC5EFF4FE491E6BF4B
:1002B000C601B5012AE030E040E050E059DF539438
:1002C000BBE5B51598F4EA81EE2319F0F981FF2317
:1002D00021F488B394E0892788BB222011F03320D1
:1002E00021F488B3A2E08A2788BB55240894E11C36
:1002F000F11C011D111DE614F7040805190590F203
:100300004394842D90E063E070E031D0FC01E0592B
:10031000FF4F4491842D90E063E070E028D08F5827
:100320009F4FFC012591349188B3F8E08F2788BB5B
:10033000E42FEE2309F4B0CF8E2F62E32AD09A8304
:100340008E2F64E126D099838E2F68E222D0292E49
:100350008E2F6AE01ED0392EEE24FF24870139014A
:1003600088249924AE2EBB24CC24DD24C4CF552769
:10037000002480FF02C0060E571F660F771F61150D
:10038000710521F096958795009799F7952F802D07
:100390000895991B79E004C0991F961708F0961BE1
:1003A000881F7A95C9F780950895A1E21A2EAA1B95
:1003B000BB1BFD010DC0AA1FBB1FEE1FFF1FA21715
:1003C000B307E407F50720F0A21BB30BE40BF50B12
:1003D000661F771F881F991F1A9469F7609570959B
:1003E000809590959B01AC01BD01CF010895F894D3
:0203F000FFCF3D
:0203F2005C00AD
:00000001FF
